{
  "_format": "hh-sol-artifact-1",
  "contractName": "DutchAuction",
  "sourceName": "contracts/DutchAuction.sol",
  "abi": [
    {
      "inputs": [
        {
          "internalType": "uint256",
          "name": "_reservePrice",
          "type": "uint256"
        },
        {
          "internalType": "address",
          "name": "_judgeAddress",
          "type": "address"
        },
        {
          "internalType": "uint256",
          "name": "_numBlocksAuctionOpen",
          "type": "uint256"
        },
        {
          "internalType": "uint256",
          "name": "_offerPriceDecrement",
          "type": "uint256"
        }
      ],
      "stateMutability": "nonpayable",
      "type": "constructor"
    },
    {
      "inputs": [],
      "name": "bid",
      "outputs": [
        {
          "internalType": "address",
          "name": "",
          "type": "address"
        }
      ],
      "stateMutability": "payable",
      "type": "function"
    },
    {
      "inputs": [],
      "name": "finalize",
      "outputs": [],
      "stateMutability": "nonpayable",
      "type": "function"
    },
    {
      "inputs": [],
      "name": "judgeAddress",
      "outputs": [
        {
          "internalType": "address",
          "name": "",
          "type": "address"
        }
      ],
      "stateMutability": "view",
      "type": "function"
    },
    {
      "inputs": [],
      "name": "nop",
      "outputs": [
        {
          "internalType": "bool",
          "name": "",
          "type": "bool"
        }
      ],
      "stateMutability": "nonpayable",
      "type": "function"
    },
    {
      "inputs": [],
      "name": "numBlocksActionOpen",
      "outputs": [
        {
          "internalType": "uint256",
          "name": "",
          "type": "uint256"
        }
      ],
      "stateMutability": "view",
      "type": "function"
    },
    {
      "inputs": [],
      "name": "ownerAddress",
      "outputs": [
        {
          "internalType": "address payable",
          "name": "",
          "type": "address"
        }
      ],
      "stateMutability": "view",
      "type": "function"
    },
    {
      "inputs": [
        {
          "internalType": "uint256",
          "name": "refundAmount",
          "type": "uint256"
        }
      ],
      "name": "refund",
      "outputs": [],
      "stateMutability": "nonpayable",
      "type": "function"
    },
    {
      "inputs": [],
      "name": "winnerAddress",
      "outputs": [
        {
          "internalType": "address payable",
          "name": "",
          "type": "address"
        }
      ],
      "stateMutability": "view",
      "type": "function"
    }
  ],
  "bytecode": "0x60806040523480156200001157600080fd5b5060405162000c1d38038062000c1d83398181016040528101906200003791906200010c565b8360038190555082600160006101000a81548173ffffffffffffffffffffffffffffffffffffffff021916908373ffffffffffffffffffffffffffffffffffffffff1602179055508160048190555080600581905550336000806101000a81548173ffffffffffffffffffffffffffffffffffffffff021916908373ffffffffffffffffffffffffffffffffffffffff1602179055504360068190555050505050620001ea565b600081519050620000ef81620001b6565b92915050565b6000815190506200010681620001d0565b92915050565b600080600080608085870312156200012357600080fd5b60006200013387828801620000f5565b94505060206200014687828801620000de565b93505060406200015987828801620000f5565b92505060606200016c87828801620000f5565b91505092959194509250565b600062000185826200018c565b9050919050565b600073ffffffffffffffffffffffffffffffffffffffff82169050919050565b6000819050919050565b620001c18162000178565b8114620001cd57600080fd5b50565b620001db81620001ac565b8114620001e757600080fd5b50565b610a2380620001fa6000396000f3fe60806040526004361061007b5760003560e01c80633c03d8be1161004e5780633c03d8be1461011d5780634bb278f3146101485780638f84aa091461015f578063ed7a4e0b1461018a5761007b565b80631998aeef1461008057806321e41eeb1461009e578063278ecde1146100c95780632e9c58bb146100f2575b600080fd5b6100886101b5565b60405161009591906107fd565b60405180910390f35b3480156100aa57600080fd5b506100b36103d8565b6040516100c0919061084e565b60405180910390f35b3480156100d557600080fd5b506100f060048036038101906100eb9190610798565b6103de565b005b3480156100fe57600080fd5b50610107610587565b6040516101149190610833565b60405180910390f35b34801561012957600080fd5b50610132610590565b60405161013f91906107fd565b60405180910390f35b34801561015457600080fd5b5061015d6105b6565b005b34801561016b57600080fd5b50610174610739565b6040516101819190610818565b60405180910390f35b34801561019657600080fd5b5061019f61075d565b6040516101ac9190610818565b60405180910390f35b6000600860009054906101000a900460ff16156101d157600080fd5b6004546006546101e19190610869565b43106101ec57600080fd5b436004546006546101fd9190610869565b6102079190610919565b60055461021491906108bf565b6003546102219190610869565b34101561022d57600080fd5b6001600860006101000a81548160ff021916908315150217905550600073ffffffffffffffffffffffffffffffffffffffff16600160009054906101000a900473ffffffffffffffffffffffffffffffffffffffff1673ffffffffffffffffffffffffffffffffffffffff1614156103675733600260006101000a81548173ffffffffffffffffffffffffffffffffffffffff021916908373ffffffffffffffffffffffffffffffffffffffff16021790555060008054906101000a900473ffffffffffffffffffffffffffffffffffffffff1673ffffffffffffffffffffffffffffffffffffffff166108fc349081150290604051600060405180830381858888f19350505050158015610346573d6000803e3d6000fd5b506001600860016101000a81548160ff0219169083151502179055506103b0565b33600260006101000a81548173ffffffffffffffffffffffffffffffffffffffff021916908373ffffffffffffffffffffffffffffffffffffffff160217905550346007819055505b600260009054906101000a900473ffffffffffffffffffffffffffffffffffffffff16905090565b60045481565b600860009054906101000a900460ff1680156104075750600860019054906101000a900460ff16155b80156104205750600860029054906101000a900460ff16155b61042957600080fd5b600160009054906101000a900473ffffffffffffffffffffffffffffffffffffffff1673ffffffffffffffffffffffffffffffffffffffff163373ffffffffffffffffffffffffffffffffffffffff161461048357600080fd5b600160009054906101000a900473ffffffffffffffffffffffffffffffffffffffff1673ffffffffffffffffffffffffffffffffffffffff16600260009054906101000a900473ffffffffffffffffffffffffffffffffffffffff1673ffffffffffffffffffffffffffffffffffffffff16141561050057600080fd5b6001600860026101000a81548160ff021916908315150217905550600260009054906101000a900473ffffffffffffffffffffffffffffffffffffffff1673ffffffffffffffffffffffffffffffffffffffff166108fc829081150290604051600060405180830381858888f19350505050158015610583573d6000803e3d6000fd5b5050565b60006001905090565b600160009054906101000a900473ffffffffffffffffffffffffffffffffffffffff1681565b600860009054906101000a900460ff1680156105df5750600860019054906101000a900460ff16155b80156105f85750600860029054906101000a900460ff16155b61060157600080fd5b600160009054906101000a900473ffffffffffffffffffffffffffffffffffffffff1673ffffffffffffffffffffffffffffffffffffffff163373ffffffffffffffffffffffffffffffffffffffff1614806106aa5750600260009054906101000a900473ffffffffffffffffffffffffffffffffffffffff1673ffffffffffffffffffffffffffffffffffffffff163373ffffffffffffffffffffffffffffffffffffffff16145b6106b357600080fd5b6001600860016101000a81548160ff02191690831515021790555060008054906101000a900473ffffffffffffffffffffffffffffffffffffffff1673ffffffffffffffffffffffffffffffffffffffff166108fc6007549081150290604051600060405180830381858888f19350505050158015610736573d6000803e3d6000fd5b50565b60008054906101000a900473ffffffffffffffffffffffffffffffffffffffff1681565b600260009054906101000a900473ffffffffffffffffffffffffffffffffffffffff1681565b600081359050610792816109d6565b92915050565b6000602082840312156107aa57600080fd5b60006107b884828501610783565b91505092915050565b6107ca8161095f565b82525050565b6107d98161094d565b82525050565b6107e881610971565b82525050565b6107f78161099d565b82525050565b600060208201905061081260008301846107d0565b92915050565b600060208201905061082d60008301846107c1565b92915050565b600060208201905061084860008301846107df565b92915050565b600060208201905061086360008301846107ee565b92915050565b60006108748261099d565b915061087f8361099d565b9250827fffffffffffffffffffffffffffffffffffffffffffffffffffffffffffffffff038211156108b4576108b36109a7565b5b828201905092915050565b60006108ca8261099d565b91506108d58361099d565b9250817fffffffffffffffffffffffffffffffffffffffffffffffffffffffffffffffff048311821515161561090e5761090d6109a7565b5b828202905092915050565b60006109248261099d565b915061092f8361099d565b925082821015610942576109416109a7565b5b828203905092915050565b60006109588261097d565b9050919050565b600061096a8261097d565b9050919050565b60008115159050919050565b600073ffffffffffffffffffffffffffffffffffffffff82169050919050565b6000819050919050565b7f4e487b7100000000000000000000000000000000000000000000000000000000600052601160045260246000fd5b6109df8161099d565b81146109ea57600080fd5b5056fea2646970667358221220d2bef0655e33dc43b286291a1a86d2151984b137e13136afbcb2936ded39b9c264736f6c63430008040033",
  "linkReferences": {},
  "deployedLinkReferences": {}
}